:020000040800F2
:10000000C077002065010008559B0008917A000820
:10001000C18D00086D170008750F01080000000071
:10002000000000000000000000000000CDBD00083E
:10003000C91F000800000000A5B30008E50601087C
:100040007F0100087F0100087F010008B1B90008A6
:100050007F0100087F0100087F0100087F01000880
:100060007F0100087F0100087F0100087F01000870
:100070007F0100087F0100087F0100087F01000860
:100080007F0100087F0100081D0900087F010008AA
:100090007F0100087F0100087F0100087F01000840
:1000A0007F0100087F0100087F0100087F01000830
:1000B0007D070108490801087F0100087F01000849
:1000C0007F0100087F0100087F0100087F01000810
:1000D0007F010008510B01084D0C01087F01000849
:1000E0007F0100087F0100087F0100087F010008F0
:1000F0007F0100087F0100087F0100080000000068
:100100007F010008000000007F0100087F01000857
:100110007F0100087F0100087F0100087F010008BF
:100120007F0100087F0100087F0100087F010008AF
:100130007F01000800000000000000007F010008AF
:100140007F0100087F0100087F0100087F0100088F
:10015000DFF80CD000F054FB00480047C935010817
:10016000C07700200648804706480047FEE7FEE7C4
:10017000FEE7FEE7FEE7FEE7FEE7FEE7FEE7FEE757
:100180002507010851010008A0F14101192900D8F3
:100190002030704740EA01039B0703D009E008C9FB
:1001A000121F08C0042AFAD203E011F8013B00F83C
:1001B000013B521EF9D27047D2B201E000F8012B88
:1001C000491EFBD270470022F6E710B513460A46D7
:1001D00004461946FFF7F0FF204610BD421C10F8F8
:1001E000011B0029FBD1801A704730B5044600205E
:1001F000034600E05B1C934203D2E05CCD5C401BF5
:10020000F8D030BD034611F8012B00F8012B002A6D
:10021000F9D11846704730B505460020034600E086
:100220005B1C934205D2EC5CC85C201A01D1002C07
:10023000F6D130BD2DE9F0410546002090460E462E
:10024000044600E0641C44450BD2285DFFF79CFF88
:100250000746305DFFF798FF381A02D1295D002963
:10026000F0D1BDE8F0812DE9FE4F804681EA030020
:10027000C00F0C46009021F0004123F00045B8EB80
:100280000200A94105D24046214690461C460B4635
:10029000024623F00040104347D0270DC7F30A0061
:1002A000C3F30A510290401A019040286BDAC3F35D
:1002B000130040F4801B0098924620B10023D2EB3B
:1002C000030A63EB0B0B01985946C0F140025046FC
:1002D00000F0F1F906460D4650465946019A00F0E5
:1002E00009FA10EB08006141002487EA115284EA00
:1002F000E7731A4340D0009A62B3019A012A4FEA89
:10030000075215DC001B61EB02014FF0004202EACC
:100310000752CDE90042001C41F5801132462B46C0
:1003200000F009FA03B0BDE8F08F40462146F9E736
:10033000001B61EB0201001C41F5801300185B41BA
:100340002018A2F5001747EB030140EAD570B61953
:100350006D4111E06D084FEA360645EAC0754FEA77
:100360000752001B61EB0201001C41F58011490896
:100370004FEA30000019514132462B4603B0BDE828
:10038000F04F00F0C9B90098012240000023D0EBE3
:10039000020263EBE073009821464FEAE074B8EB89
:1003A000000061EB0401E9E783F000435BE781F0C3
:1003B000004158E72DE9FE4F81EA030404F00044B0
:1003C00021F0004100944FF0000B23F0004350EA6D
:1003D00001045ED052EA03045BD0C3F30A54C1F3B4
:1003E0000A552C44A4F2F3340194A0FB0254C1F347
:1003F000130141F48011C3F3130343F4801301FB91
:10040000024400FB034E840A970A44EA815447EAF7
:100410008357A4FB076802958D0A05FB07854FEA01
:10042000932C04FB0C542705029D4FEA065847EA1B
:100430001637B5EB08056EEB070C870E920E47EAF0
:10044000811742EA8312A7FB0201B6EB0B0164EBB2
:1004500000042B0D43EA0C335E1844EB1C50DA46C3
:100460005146E7FB0201C5F313044FEA0B3343EA9D
:1004700014534FEA0432019C43EA0603A4F10C042E
:100480000294009CCDE900B400F055F903B0BDE83A
:10049000F08F00200146F9E72DE9F04D81EA0304D1
:1004A00004F0004B21F0004514464FF0000A23F001
:1004B000004150EA050220D054EA01021DD0C5F3E4
:1004C0000A570246C5F31303C1F31300C1F30A56DA
:1004D00040F4801543F48013A7EB0608101BD646A2
:1004E00008F2FD3873EB050002D308F1010801E0C2
:1004F00092185B41B8F1000F03DA00200146BDE815
:10050000F08D00204FF48011064684460EE0171B44
:1005100073EB050705D3121B63EB050306434CEA97
:10052000010C49084FEA300092185B4150EA01077C
:10053000EDD152EA030012D082EA040083EA0501F9
:10054000084305D0101BAB4106D20122002306E070
:1005500000224FF0004302E06FF0010253101AEB4B
:1005600006004CEB085110EB0A0041EB0B01BDE813
:10057000F04D00F0D1B80EB5C10F80EAE07008442C
:10058000CA07002140F233438DE80E000A460B46AD
:1005900000F0D1F803B000BD0EB540F23341029136
:1005A0000021CDE900110A460B4600F0C4F803B063
:1005B00000BD70B5C1F30A5201F000450024C1F33B
:1005C000130140F2FF3341F480119A4201DA002016
:1005D00070BD40F233439A42A2F2334203DC5242EE
:1005E00000F078F800E090402C43F1D0404270BD1C
:1005F000C1F30A5210B5C1F3130140F2FF3341F4C5
:1006000080119A4201DA002010BD40F233439A4231
:10061000A2F2334203DC524200F05CF810BD90407D
:1006200010BD000030B5041E71F1000404DB4FF072
:100630000044404264EB0101141E73F1000405DB29
:100640001C464FF00043524263EB0403994208BF3B
:10065000904230BD2DE9F05F0546002092469B4652
:1006600088460646814640241BE0284641464746C8
:10067000224600F02FF853465A46C01A914110D333
:1006800011461846224600F016F82D1A67EB0108AD
:100690004F4622460120002100F00DF817EB00091B
:1006A0004E41201EA4F10104DFDC484631462A46B3
:1006B0004346BDE8F09F202A04DB203A00FA02F10D
:1006C000002070479140C2F1200320FA03F3194340
:1006D00090407047202A04DB203A21FA02F00021E2
:1006E000704721FA02F3D040C2F120029140084342
:1006F00019467047202A06DBCB17203A41FA02F050
:1007000043EAE07306E041FA02F3D040C2F120026E
:10071000914008431946704710B5141E73F1000448
:1007200008DA401C41F1000192185B411A4301D1E3
:1007300020F0010010BD2DE9F04D92469B4611B10D
:10074000B1FA81F202E0B0FA80F220329046FFF76F
:10075000B2FF04460F4640EA0A0041EA0B01534645
:100760005A46084313D0114653EA010019D0C8F184
:1007700040025046FFF7AEFF05460E46504659462A
:100780004246FFF798FF084305D0012004E02046C9
:100790003946BDE8F08D0020054346EAE0762C435B
:1007A00037430A986305E40AA0EB08000022FD0A1B
:1007B00044EA47540A3002D500200146E9E7010522
:1007C00010196941DDE9084500196941BDE8F04D9E
:1007D000A2E770B521F0004303430CD0C1F30A55E2
:1007E0000024D5EB040564EB0403D617AD1AB3411E
:1007F00002DB0020014670BD201841EB025170BDA4
:10080000064C074D06E0E06840F0010394E807005D
:1008100098471034AC42F6D3FFF79EFC80AB01083A
:10082000A0AB01082DE9F04D00231A461B1A8A419E
:1008300003DB00200146BDE8F08DC1F30A52C1F38D
:10084000130141F480154FF0000BD10702D10018BD
:100850006D41521E0027044640F2FF11384601EB5D
:10086000620A3E468046024600204FF48011FFF7A0
:1008700031FFC2197141BB1846EB0100B4EB030C08
:1008800075EB000C04D3E41A65EB000517460E4621
:10089000241908F101006D4180463428E3DDF9197F
:1008A00046EB0600091BA84103D24FF0FF32134666
:1008B00001E0002213461BEB070046EB0A51BDE89E
:1008C000F04DFFF729BF70B58C1810F8015B15F0DB
:1008D000070301D110F8013B2A1106D110F8012BB2
:1008E00003E010F8016B01F8016B5B1EF9D12B07D7
:1008F00005D40023521E0DD401F8013BFAE710F88D
:10090000013BCB1A921C03E013F8015B01F8015B79
:10091000521EF9D5A142D8D3002070BD10B50024D5
:100920000221134811F066FF00B312480078401C02
:100930001049087008460078642813D10020087018
:100940000B4811F0E7FF044640F6E441614389009B
:10095000032291FBF2F0C11700EB1151C1F30F31EB
:10096000054A11800221024811F040FF10BD00002D
:1009700000240140B2000020B000002010B5022188
:10098000054811F033FF0221034811F019FF024816
:1009900011F072FE10BD0000002401402DE9F84363
:1009A0000746884616461A488378427819A1304689
:1009B00010F0FCFCC4B200251AE018F8059009EB11
:1009C000D9704010A9EB4001785D401EC0EBC0001B
:1009D0000844164931F81000009018F805307A5D87
:1009E000301913A110F0E2FC2044C4B2681CC5B257
:1009F000B87AA842E1DC7D21601E3154301910A183
:100A000010F0D4FC2044C4B22046BDE8F8830000B6
:100A1000183B00207B226964223A256425642C223D
:100A2000706172616D73223A7B000000BC0500208A
:100A300022444F25645F2564223A25642C0000007F
:100A40002C2276657273696F6E223A22312E302223
:100A50007D0000002DE9F74F91464FF0000BD8467E
:100A6000002400250B2012F0C1FD06460A2012F0DA
:100A7000BDFD07460020B072494890F8C705002820
:100A800006DD4946009800F0EDF800287BD17BE0B8
:100A9000009812F059F88346BBF1000F03D141A032
:100AA0000BF06EF970E045A1584612F02EF8804622
:100AB000B8F1000F03D144A00BF062F964E0D8F85C
:100AC0000C00052800D05FE00021404612F014F829
:100AD0008046B8F1000F03D143A00BF051F953E069
:100AE00047A1404612F011F804461CB946A00BF08D
:100AF00047F949E002224AA02169FFF79BFB8246A1
:100B0000BAF1000F3FD120698078302803DB2069DB
:100B10008078392803DD43A00BF032F934E02069F6
:100B200080783038705520690079303878552069E0
:100B3000C078302810DB2069C07839280CDC2069A7
:100B4000C078715D01EB810100EB410030387055D8
:100B5000206940793038785538A1404611F0D5FFEA
:100B600004461CB938A00BF00BF90DE0725D795DFD
:100B7000207D08F061FE0125B5724B460022394602
:100B8000304608F037FD00BF304612F07BFA384699
:100B900012F078FA584611F087FF2846BDE8FE8F1C
:100BA000080C00206D717474204A736F6E20666F9C
:100BB000726D6174204572726F72000073656E739E
:100BC0006F724461746173006D7174742063616E3F
:100BD000206E6F742066696E642073656E736F7229
:100BE00044617461730000006D7174742063616E00
:100BF000206E6F742066696E64204974656D000014
:100C0000666C6167000000006D7174742063616E32
:100C1000206E6F742066696E6420666C61670000E8
:100C2000444F00006D717474206461746120666FBC
:100C3000726D6174206572726F72000073776974EF
:100C400063686572000000006D7174742063616EEA
:100C5000206E6F742066696E6420737769746368B0
:100C6000657200002DE9F84F834689464FF0000A6F
:100C700000240025012000900B2012F0B7FC06464E
:100C80000A2012F0B3FC07460020B072584611F05B
:100C90005BFF8246BAF1000F00D177E0414890F83F
:100CA000C705102812D140A1504611F02EFF04466E
:100CB0001CB93EA00BF064F868E0A08A80B20090F6
:100CC00040A1504611F021FF044604E03FA15046E8
:100CD00011F01BFF04461CB93EA00BF051F855E083
:100CE000A06800B952E000BFA0680222016A40A0DB
:100CF000FFF7A0FA8046B8F1000F38D1A068006A6B
:100D00008078302804DBA068006A8078392803DD09
:100D100038A00BF035F839E0A068006A80783038E8
:100D20007055A068006A007930387855A068006A6C
:100D3000C078302813DBA068006AC07839280EDC40
:100D4000A068006AC078715D01EB810100EB410091
:100D500030387055A068006A407930387855725D37
:100D6000795DA368187D08F067FD681CC5B2A068AE
:100D70000068A060A0680028B6D135B1B5724B46B6
:100D800039463046009A08F035FC00BF304612F074
:100D900079F9384612F076F9204611F085FE28469A
:100DA000BDE8F88F080C00206D6964006D717474E3
:100DB0002063616E206E6F742066696E64206D69B9
:100DC0006400000070617261730000007061726104
:100DD0006D7300006D7174742063616E206E6F74AA
:100DE0002066696E6420706172616D73000000009E
:100DF000444F00006D717474206461746120666FEB
:100E0000726D6174206572726F7200002DE9FF4F80
:100E100085B007468A461D46002003908346BAF1F6
:100E2000060F02DA09B0BDE8F08FFE480760FE4801
:100E30000760FF21FD480068C01CFFF7C4F9F948AE
:100E400000684078002804DDF648006840780628ED
:100E500009DDF448006840780F283ADBF148006863
:100E60004078102835DCAAF1020081B2384607F03C
:100E7000A9FF0490AAF10100395C401E385C01EB27
:100E800000210498814222D1E6480068C178E548F3
:100E90000068807801EB002086B2E2480068417962
:100EA000E0480068007901EB002084B2DF4805606B
:100EB000DC4800680078DD4909680870D948006896
:100EC0004078DA49096848704FF0010B01E04FF0B3
:100ED000000BBBF1000F4DD1D34800684088D0BB58
:100EE000BAF10C0F00DA9DE7CF480068417ACE488E
:100EF0000068007A01EB002086B2CB480068C17A16
:100F0000C9480068807A01EB002084B2A81DC74957
:100F10000860B81DC3490860C3480068007828709D
:100F2000C1480068008800126870BF480068807877
:100F3000A870BD48006840880012E870BA48006890
:100F40008079BA4909680870B7480068C079B7491C
:100F5000096848700EE0FFE7B5A00AF011FFB2493A
:100F6000096889793231C8B253463A4607990BF07D
:100F70001DFD57E7B6488088AA4909680978884264
:100F80000AD0A849096809783231C8B253463A46AE
:100F900007990BF00BFD45E7A2480068407803284D
:100FA00004D0A04800684078042844D1C82C00DD53
:100FB00038E749F6404086421CDB301949F69E511D
:100FC000884217DC6006000E984909688870A6F50B
:100FD0001C4040381FFA80F842462146934800687A
:100FE000C01C0DF01FFA914800688078C01CC0B288
:100FF0000390E7E14AF2F8708642FADB30194AF6CC
:1010000015018842F5DAA6F52740F8381FFA80F86E
:101010006006000E85490968887008F0FF01834862
:101020000068C01C05F0D0F9804800688078C01CBA
:10103000C0B20390C6E17B480068407806282ED1F4
:101040004AF2F8708642D4DB4AF614008642D0DABF
:10105000A6F52740F8381FFA80F808F0FF0021466F
:101060000DF0FEF90BF038FABBF1000F12D06D480D
:1010700000688078A8706B480068C078E87069489C
:101080000068007928716748006840796871062017
:10109000039097E1002065490968887092E16148F2
:1010A00000684078102852D17F2CA2DC4AF2F870F8
:1010B00086429EDB30194AF61401884299DCA6F577
:1010C0002740F8381FFA80F8BBF1000F02D000204B
:1010D000029001E0062002904FF0000918E0029A09
:1010E000D21D02EB4902521CBB5C029AD21D02EBDC
:1010F0004902BA5C43EA022108F0FF000DF0B0F9A2
:1011000009F1010000F0FF0908F101001FFA80F861
:10111000A145E4DB0BF0E0F9BBF1000F12D0414830
:1011200000688078A8703F480068C078E8703D4843
:101130000068007928713B48006840796871062092
:10114000039003E000203949096888703AE1354886
:101150000068407801282FD1642C00DD62E6301948
:10116000642896DC2246E31704EB5373DB10A4EBF0
:10117000C30333B12146E31704EB5373DB105B1C4D
:1011800004E02046C31700EB5373DB10DFF89CC06C
:10119000DCF800C08CF80230F2B224480068817894
:1011A00022480068C01C03F0E3FD204800688078F6
:1011B000C01CC0B2039005E11A48006840780228BC
:1011C00079D1C82E46DB3019FA2843DC2246E317D2
:1011D00004EB5373DB10A4EBC30333B12146E317D5
:1011E00004EB5373DB105B1C04E02046C31700EBD9
:1011F0005373DB10DFF834C0DCF800C08CF8023029
:10120000A6F1C800C2B209480068817807480068A2
:10121000C01C03F0DDFF054800688078C01CC0B228
:101220000390CFE0E8000020EC000020F000002058
:101230004572726F72204372632026205443502CF3
:101240007475726E20746F206C6F72610000000004
:10125000080C0020C82C00DDE4E53019C828AADC01
:101260002246E31704EB5373DB10A4EBC30333B143
:101270002146E31704EB5373DB105B1C04E02046AC
:10128000C31700EB5373DB10DFF8E4C1DCF800C0D8
:101290008CF80230F2B276480068817874480068B1
:1012A000C01C03F085FB724800688078C01CC0B287
:1012B000039087E0FFE76F4800684078052815D164
:1012C000642E0CDC04F47F4020B1F0B201210BF05D
:1012D000A5FC04E01CB9F0B200210BF09FFC00203B
:1012E000634909688870052003906BE061480068D5
:1012F00040780F2866D1642C64DA3019B0F5967FF7
:1013000060DABBF1000F02D00020029001E006205D
:1013100002902046E11704EB5171C1F3CF044FF066
:10132000000932E00020019028E03019642816DC22
:101330000298C01D00EB4900385C00F0010038B194
:101340003146721C96B2C8B201210BF067FC06E070
:101350003146721C96B2C8B200210BF05FFC0298B5
:10136000C01D00EB4900385C41100298C01D00EB25
:10137000490039540198401CC0B2019001980828D6
:10138000D3DB09F1010000F0FF09A145CADBBBF185
:10139000000F12D0374800688078A8703548006880
:1013A000C078E870334800680079287131480068D7
:1013B000407968710620039003E000202C490968F9
:1013C000887000BFBBF1000F13D02846039907F0C7
:1013D000F9FC0490049802120398411CC9B20391CD
:1013E0002A540498C2B20398411CC9B203912A54EA
:1013F0002BE01F4800688078B0B9002028710620D3
:1014000068711C480068807828721A480068C078A3
:101410006872184800680079A87216480068407918
:10142000E8720C20039010E0114800688078C01C1E
:10143000001228710E4800688078C01C68710C4842
:10144000006880780930C0B20390039848B9094910
:10145000096809783231C8B253463A4607990BF009
:10146000A5FA2846079A03990AF036FC00BFD9E48A
:10147000F0000020E80000202DE9FC4105460E4662
:101480001446002004EB44019C4A02EBC101C880D1
:1014900004F088FF804604EB4400984901EBC0004B
:1014A0008680284606F048FE00285FD02946684618
:1014B00013F044FA002858D000BF9DF801009DF8B1
:1014C000001040EA012000029DF801109DF8002064
:1014D00041EA022140EA212080B2ADF804009DF8E3
:1014E00003009DF8021040EA012000029DF803105D
:1014F0009DF8022041EA022140EA212080B2ADF8A5
:10150000060000BF00BFBDF8040004EB44017B4AA5
:1015100022F83100BDF8060004EB440102EBC101E2
:10152000488000BF76A00AF02BFC04EB4401734A0C
:1015300002EBC101888812F003F8074604EB44016E
:101540006E4A02EBC100394614F0BAF904EB4401CB
:101550006A4A02EBC1010861042004EB440102EB7A
:10156000C101087204F01EFF8046C4E000276948EC
:10157000007800287ED168480078E8BB674890F87A
:10158000170288B3654890F81602FF282CD000BFD8
:10159000624890F81702614991F8161240EA01205A
:1015A00001025E4890F817025C4A92F8162240EA5F
:1015B000022041EA202080B2ADF80400574890F89C
:1015C000191290F8180241EA00200102534890F8DD
:1015D000192290F8180242EA002041EA202080B245
:1015E000ADF8060000BF01274C4890F81B0228B94F
:1015F0004A4890F8180200E003E010B10120464983
:101600000870BFBB44480078A0B30020424908706E
:10161000424890F81B0268B3404890F81A02FF282D
:101620002ED000BF3D4890F81B023C4991F81A1299
:1016300040EA01200102394890F81B02374A92F82B
:101640001A2240EA022041EA202080B2ADF80400CC
:10165000324890F81D1290F81C0241EA0020010265
:101660002E4890F81D2290F81C0242EA002041EA20
:10167000202000E004E080B2ADF8060000BF0127A2
:1016800017B924480078A8B3032004EB44011B4A8F
:1016900002EBC101087204EB4400114601EBC000EB
:1016A000C08820F0800004EB440102EBC101C88037
:1016B0001BA00AF065FB12F07BFF10B901A812F025
:1016C000FDFE284612F09AFF04EB44010B4A02EBA0
:1016D000C101487204EB4400114601EBC000407A9E
:1016E00040F0800004EB440102EBC101487204F0B9
:1016F00059FE804600BF4046BDE8FC81085C0020E2
:1017000075697020636F6E6E656374696E672E2EE7
:101710002E0000005801002078000020080C002056
:10172000416E616C792054617267657420536572F3
:1017300076657220697000000D210B48B0F8C82052
:10174000B0F8C800401C084BA3F8C80018468154E4
:101750000A22B0F8C810B0F8C800401CA3F8C800AE
:101760001846425470470000E204002000BFFEE724
:10177000F0B506460F4615463946304604F0DAFE07
:101780000446002C0ADD601E054901EB00100570BF
:101790000121601E024A02EB0010C173F0BD00007F
:1017A000440A002001460022002007E0C0F10703A0
:1017B000CB5C62F35F03DAB2431CD8B20828F5DBD6
:1017C0001046704710B500240122C823114603A01B
:1017D0000AF03EFF0446204610BD000041540D0AA9
:1017E0000000000010B5002400BF09E004EB8400F5
:1017F000074901EBC000407E00B903E0601CC4B2A1
:10180000282CF3DB00BF282C01DB06F0CFFB10BD3A
:10181000C053002030B50246002300200FE0C2EB89
:101820000214C4EBC404084D05EB4404CC34245C1E
:101830000D5CAC4201D0012303E0441CE0B2062859
:10184000EDDB00BF184630BD1412002010B52C4847
:1018500011F0EEFC00F48050002845D04FF4005108
:10186000284811F083FC2848008840F61751884228
:1018700025DA26480088401C24490880084600884C
:101880004EF66021884239DD01211E4811F06EFCC0
:101890000EF0D6FE00F0C0F9A0230322482118481C
:1018A00011F068FC0AE030BF0FF0B8FC144811F0EA
:1018B000BFFC00F4805008B908F062F9F3E7124861
:1018C000008840F64551884208DA00200F49088018
:1018D0000F480088401C0E4908800FE000200B498B
:1018E00008800B49088009E04FF40051054811F0C9
:1018F0003FFC0020054908800549088010BD000014
:1019000000080140000C0140B0000020E20000206F
:10191000E400002010B5334811F08AFC00F4807018
:10192000002858D030480078012806D104F03AFD4C
:101930002E49088000202C49087004F033FD2B4903
:101940000988884205DD04F02DFD28490988401AE0
:1019500004E004F027FD25490988081A022840DD23
:101960000CF000FE00202149088000242FE04FF4F5
:1019700000511C4811F0FAFB4FF48041194811F056
:10198000F5FB4FF40041174811F0F0FB4FF4807164
:10199000174811F0EBFBC82011F02EFA4FF400515C
:1019A000104811F0E5FB4FF480410E4811F0E0FBC8
:1019B0004FF400410B4811F0DBFB4FF480710C48F1
:1019C00011F0D6FBC82011F017FA601CC4B2032C2A
:1019D000CDDB08F0D5F80120034908700020034949
:1019E000088010BD000C0140E0000020DE00002057
:1019F0000008014070B505460E461446314628469B
:101A000004F098FD2070207880B9002108E0084893
:101A100000EB0110807B012800D003E0481CC1B21C
:101A20001929F4DB00BF481CC0B270BD0020FCE7E0
:101A3000440A002010B500240BE00748005D302860
:101A400003DB0548005D392801DD0AF0AFF8601CB2
:101A5000C4B2042CF1DB10BD080C002070B50546A3
:101A60000F269DB11648008858B1002407E02103D5
:101A700001F50030012101F0C9FE601CC4B2B4427E
:101A8000F5DB00200E4908800E4908800E480088CA
:101A900000B970BD0326002407E0210301F54030A2
:101AA000012101F0B3FE601CC4B2B442F5DB00209A
:101AB00005490880054908800AF0BCFD00BFE8E739
:101AC000A4000020AA000020A8000020AE000020F2
:101AD00010B53C214B48FEF776FB282149483D30A4
:101AE000FEF771FB282147486530FEF76CFB282183
:101AF00044488D30FEF767FB3C214248B530FEF785
:101B000062FB00200AE000223F490A54091F0A54E0
:101B100008310A54091D0A54411CC8B20428F2DBDA
:101B200034213848FA30FEF74EFB34213648DE388F
:101B3000FEF749FB34213448AA38FEF744FB342130
:101B400031484238FEF73FFB34212F487638FEF704
:101B50003AFB3C212C480C30FEF735FB34212A4857
:101B60004F30FEF730FB342127488330FEF72BFB44
:101B700034212548B730FEF726FB34212348FEF7F1
:101B800022FB342121483438FEF71DFB34211F4845
:101B90003630FEF718FB48211C489E30FEF713FB39
:101BA00034211A486A30FEF70EFB48211748E63008
:101BB000FEF709FB48211648FEF705FB22211448D1
:101BC0007030FEF700FB282111489230FEF7FBFA37
:101BD00022210F484E30FEF7F6FA3C210C48BA306D
:101BE000FEF7F1FA22210A48F630FEF7ECFA14214A
:101BF0000848FEF7E8FA3C2106481430FEF7E3FAFD
:101C000010BD00000E0C00201A0E0020390F00201D
:101C1000671000207F11002010B54FF400610348C9
:101C200011F0A4FA024815F033FA10BD0008014083
:101C30000044004010B5014691F832300A4800884F
:101C4000834201DD002010BD002208E00748805CCF
:101C50000C78A04201D00020F5E7501CC2B29A4295
:101C6000F4DB0120EFE700008C010020CA600020B7
:101C700010B5024692F832300A4890F82C0198428A
:101C800001DA012010BD002108E0505C054C645CC5
:101C9000A04201D00120F5E7481CC1B29942F4DB13
:101CA0000020EFE72602002030B50346002410E0B4
:101CB0000878202802DB0878FF2800DD0BE0187880
:101CC0000D78A84201D0002030BD601CC4B25B1C5E
:101CD000491C9442ECDB00BF0120F5E70FB410B5BE
:101CE0009DF80A009DF8DE10884203D0012010BC48
:101CF0005DF814FB002427E00DF1B60030F8141055
:101D0000D43030F81400814201D00120EFE731A82F
:101D100030F8141066A830F81400814201D0012078
:101D2000E5E704EB84030DF1FD0202EB830104EB14
:101D30008403D43A02EB83001422FFF7B5FF08B9FD
:101D40000120D4E7601CC4B2072CD5DB9DF8090044
:101D50009DF8DD10884201D00120C8E7002109E08C
:101D600035A8425C6AA8405C824201D00120BEE7EF
:101D7000481CC1B20629F3DB0020B8E70FB470B5E8
:101D800004469DF81600A07000251FE00DF1C2006A
:101D900030F8151004F1AE0020F8151034A830F812
:101DA000151004F1BC0020F8151005EB85030DF1AA
:101DB000350202EB830105EB850304F1210202EBFE
:101DC0008300142200F01BF8681CC5B2072DDDDB70
:101DD0001E220DF11701E01C00F011F89DF815000E
:101DE0006070002006E038A90A5C04F1CC010A54B6
:101DF000411CC8B20628F6DB70BC5DF814FB10B5B8
:101E0000034600200EE00C78202C02DB0C78FF2C1F
:101E100002DD00241C7007E00C781C705B1C491C60
:101E2000441CE0B29042EEDB00BF10BD38B5044662
:101E3000502011F0DBFB054628A00AF077FE207940
:101E40000090E378A2782BA128460FF0AFFA28463D
:101E50000AF06CFEE0790090A37962792DA1284602
:101E60000FF0A4FA28460AF061FEA37A228931A174
:101E700028460FF09BFA28460AF058FEE27A33A172
:101E800028460FF093FA28460AF050FE638A227B18
:101E900032A128460FF08AFA28460AF047FE238A24
:101EA000E28935A128460FF081FA28460AF03EFE65
:101EB000E38AA28A36A128460FF078FA28460AF06B
:101EC00035FE238B628B38A128460FF06FFA284627
:101ED0000AF02CFE284611F0D5F838BD0D0A7B22F9
:101EE0004D534754595045223A342C224D534722E2
:101EF0003A7B000022796561725F6D6F6E74685F76
:101F0000646179223A2225642D25642D2564222CD2
:101F10000000000022686F75725F6D696E5F736507
:101F200063223A2225643A25643A2564222C0D0A5C
:101F3000000000002242617456616C223A25642C34
:101F40002247534D223A25642C0D0A00224465761F
:101F50006963654944223A25642C00002244657671
:101F600054797065223A25642C22496C6C75223AAA
:101F700025642C0D0A0000002254656D70223A255C
:101F8000642C2248756D69223A25642C0D0A0000E4
:101F900022436F32223A25642C2254766F63223A10
:101FA00025642C0D0A00000022536F696C48756D82
:101FB00069223A25642C22536F696C54656D702236
:101FC0003A25647D7D0D0A00704700003EB58020F3
:101FD00011F00CFB0546B7A128460FF0E7F928469B
:101FE0000AF0A4FDB9488288B9A128460FF0DEF9AD
:101FF00028460AF09BFD002407E0B4490A5D281931
:10200000BBA10FF0D3F9601CC4B2042CF5DB284649
:102010000AF08CFDAD4A921DB6A128460FF0C6F914
:1020200028460AF083FDA94890F8422000F14303B6
:10203000B6A128460FF0BAF928460AF077FDA34B5F
:102040009333A3F12802B9A128460FF0AFF928462F
:102050000AF06CFD9D48B0F8F83000F1BB02BCA15D
:1020600028460FF0A3F928460AF060FD9748B0F81B
:10207000FC30B0F8FA20BEA128460FF097F92846A8
:102080000AF054FD9148B0F8FE20C4A128460FF094
:102090008DF928460AF04AFDC64BA3F13402C6A1C9
:1020A00028460FF083F928460AF040FDC14B6833FB
:1020B000A3F13402CCA128460FF078F928460AF0A3
:1020C00035FD824890F8053200F5E872D3A1284624
:1020D0000FF06CF928460AF029FD7C4890F80702B9
:1020E00000907A4890F8063290F80422D7A128464A
:1020F0000FF05CF928460AF019FD7448B0F80C029C
:10210000724991F80B12714A92F80A22CDE9002126
:1021100002906E4890F8093290F80822D6A128461D
:102120000FF044F928460AF001FD684890F81102C2
:10213000664991F81012CDE90010644890F80F320A
:1021400090F80E22D7A128460FF030F928460AF061
:10215000EDFC5E4890F815025C4991F81412CDE947
:1021600000105A4890F8133290F81222D5A1284650
:102170000FF01CF928460AF0D9FC544890F81902CF
:10218000524991F81812CDE90010504890F81732D2
:1021900090F81622D2A128460FF008F928460AF036
:1021A000C5FC4A4890F81D02484991F81C12CDE937
:1021B0000010464890F81B3290F81A22CFA128460A
:1021C0000FF0F4F828460AF0B1FC4048B0F85A3253
:1021D00000F21E22D0A128460FF0E8F828460AF0A7
:1021E000A5FC3A48B0F85E32B0F85C22D4A128468B
:1021F0000FF0DCF828460AF099FC344890F8603279
:1022000090F86523D9A128460FF0D0F828460AF0A7
:102210008DFCDF4BA3F13402DEA128460FF0C6F897
:1022200028460AF083FCDA4B6833A3F13402E4A1B8
:1022300028460FF0BBF828460AF078FC234890F8AF
:10224000663300F23132EAA128460FF0AFF8284693
:102250000AF06CFCF14BA3F13402F1A128460FF017
:10226000A5F828460AF062FCEC4B7C33A3F1480247
:10227000F6A128460FF09AF828460AF057FCE74ADC
:10228000C432FDA128460FF091F828460AF04EFC12
:102290000E4890F8AC34FDA1D0F8A82428460FF0E1
:1022A00085F828460AF042FC084890F8C72500F255
:1022B000AD43FDE17B224D534754595045223A34FA
:1022C0002C224D5347223A7B00000000080C0020CE
:1022D0000D0A226465766963654964223A25642C97
:1022E0002270617373776F7264223A2200000000DB
:1022F000256300000D0A222C224465766963654E31
:10230000616D65223A222573222C00000D0A2247B6
:102310007072734D6F6465223A25642C2247707287
:102320007341706E223A222573222C000D0A224737
:10233000707273557372223A222573222C224770D1
:102340007273507764223A222573222C0000000019
:102350000D0A22477072734950223A222573222CAB
:102360002247707273506F7274223A25642C0000F9
:102370000D0A224770727342656174486561727418
:10238000223A25642C2247707273467265654F6647
:10239000666C696E65223A25642C00000D0A22479E
:1023A0007072735265747279436E74223A25642C8C
:1023B000000000003C0D00200D0A2247707273528D
:1023C0006567446174223A222573222C2247707279
:1023D0007353657276657241636B526567223A2268
:1023E0002573222C000000000D0A224770727353DF
:1023F00065727665724B69636B4F6666223A222579
:1024000073222C22477072734865617274436F6E39
:1024100074223A222573222C000000000D0A224764
:1024200070727353657276657241636B4865617251
:1024300074223A222573222C2247707273526567E8
:102440004D6F6465223A25642C0000000D0A224776
:1024500070727344617454797065223A25642C2239
:10246000526A34354D6F6465223A25642C224468E3
:102470006370223A25642C000D0A224C6F63616C54
:102480004970223A2225642E25642E25642E256467
:10249000222C224C6F63616C506F7274223A256457
:1024A0002C0000000D0A225375624E65744D617355
:1024B0006B223A2225642E25642E25642E25642263
:1024C0002C0000000D0A22476174654970223A22EF
:1024D00025642E25642E25642E2564222C00000000
:1024E0000D0A22444E53495031223A2225642E25AA
:1024F000642E25642E2564222C0000000D0A22443F
:102500004E53495032223A2225642E25642E2564EA
:102510002E2564222C0000000D0A224574685461A7
:10252000724950223A222573222C22457468546144
:1025300072544350506F7274223A25642C0000008C
:102540000D0A22457468426561744865617274229F
:102550003A25642C22457468467265656F66666C20
:10256000696E65223A25642C000000000D0A2245A0
:10257000746844617454797065223A25642C22454C
:1025800074685265747279436E74223A25642C0023
:102590009D0E00200D0A22457468526567446174DF
:1025A000223A222573222C2245746853657276657F
:1025B0007241636B526567223A222573222C000018
:1025C0000D0A224574685365727665724B69636BB8
:1025D0004F6666223A222573222C2245746848658C
:1025E000617274436F6E74223A222573222C0000AC
:1025F0000D0A2245746853657276657241636B48B3
:1026000065617274223A222573222C224574685225
:1026100065674D6F6465223A25642C00A30F002086
:102620000D0A224D717474537562546F7069632280
:102630003A222573222C224D717474507562746F86
:10264000706963223A222573222C00000D0A224D64
:102650007174744465766963654964223A2225730E
:10266000222C224D717474557365724E616D652212
:102670003A222573222C00000D0A224D71747450E9
:102680007764223A222573222C0000000D0A224D85
:1026900071747452657054696D223A25642C224D10
:1026A00071747452657044617461223A25642C001F
:1026B00044A128460EF07AFE28460AF037FA4A4B23
:1026C000A3F1220249A128460EF070FE28460AF026
:1026D0002DFA454B8633A3F15E0250A128460EF039
:1026E00065FE28460AF022FA3F4B643303F13602B6
:1026F00053A128460EF05AFE28460AF017FA5A4807
:1027000090F8C9355948027859A128460EF04EFE76
:1027100028460AF00BFA60488378534890F8CA2597
:102720005EA128460EF042FE28460AF0FFF9644BEF
:10273000594A121D63A128460EF038FE28460AF0B9
:10274000F5F969480088009068480378684A69A1EB
:1027500028460EF02BFE28460AF0E8F96E4810F0E5
:1027600067FD00F4805020B96CA128460EF01EFED3
:1027700003E06DA128460EF019FE28460AF0D6F9AE
:102780006C48C07900906B48837982886AA128469A
:102790000EF00CFE28460AF0C9F96648007A654931
:1027A0008978CDE900106348437802786AA1284609
:1027B0000EF0FCFD28460AF0B9F9284610F062FC3C
:1027C0003EBD00000D0A22416C6979756E53657437
:1027D000223A25642C2250726F647563744B6579BC
:1027E000223A222573222C00F91000200D0A2244DF
:1027F00065766963654E616D655F436F756C6422D4
:102800003A222573222C22446576696365536563F9
:10281000726574223A222573222C00000D0A224888
:10282000574465764964223A222573222C22485760
:102830005365724964223A222573222C000000005D
:102840000D0A224857536572766572223A22257323
:10285000222C224857446576536563726574223A88
:10286000222573222C000000080C002016000020F6
:102870000D0A22576F726B66726571223A25642CBD
:10288000225465726D696E616C5265704379636C38
:1028900065223A25642C0000D4110020224E657474
:1028A0004C696E6B5072696F72697479223A256453
:1028B0002C224C616E6775616765223A25642C0095
:1028C000CE000020226465766963654D6F646522E1
:1028D0003A222573222C2276657273696F6E223A32
:1028E000222573222C000000B00000205E00002092
:1028F000D204002022696D6569223A222573222CB8
:10290000227369676C6576656C223A25642C2262B5
:102910006174223A25642C00000801402264657429
:102920003556223A312C0000226465743556223A1D
:10293000302C0000183B002022796561725F6D6FBA
:102940006E74685F646179223A2225642D25642DB6
:102950002564222C0000000022686F75725F6D698B
:102960006E5F736563223A2225643A25643A2564D2
:10297000222C227765656B223A222564227D7D0018
:1029800010B50446C4EB0411C1EBC101194A02EBB6
:102990004100D221FDF717FC0020C4EB0411C1EB6C
:1029A000C101144A02F81100C4EB0411C1EBC101CA
:1029B00002EB41018870FF20C4EB0411C1EBC1019F
:1029C00002EB410181F8CC000120C4EB0411C1EB02
:1029D000C10102EB41014870182C05DD01220649B6
:1029E00002200EF03BFC04E00022024902200EF01F
:1029F00035FC10BD141200209626002010B50020D2
:102A000009F044F8012010F0F7F9282009F03EF809
:102A1000002009E00021C0EB0012C2EBC202044B0F
:102A200003F81210411CC8B23228F3DB10BD0000BD
:102A30001412002010B50021C0EB0012C2EBC2023C
:102A4000344B03EB42029170C0EB0012C2EBC202A6
:102A500003F812100121C0EB0012C2EBC20203EB1B
:102A600042025170C0EB0011C1EBC1011A4602EBEA
:102A700041010022C1F8032000212CE0FF23C0EB1C
:102A80000012C2EBC202234C04EB4202CC3253547C
:102A90000023C0EB0012C2EBC20204EB4202BC32C4
:102AA00022F81130C0EB0012C2EBC20204EB42026A
:102AB000AE3222F81130C0EB0012C2EBC202234644
:102AC00003EB4202213201EB810302EB830200237C
:102AD00013604A1CD1B20629D0DBC0EB0011C1EB58
:102AE000C1010C4A02EB41010022C1F89920C0EB60
:102AF0000011C1EBC101074B03EB4101A1F8C82054
:102B0000C0EB0011C1EBC10103EB4101A1F8BA20F8
:102B100010BD00001412002070B505460C460020C0
:102B200053490870534981F880002178514890F842
:102B3000802090F88000401C4E4B83F8800018469F
:102B40008154617890F8802090F88000401C83F8D0
:102B5000800018468154A17890F8802090F8800079
:102B6000401C83F8800018468154E17890F880205A
:102B700090F88000401C83F8800018468154227928
:102B800090F8801090F88000401C83F88000184670
:102B90004254617990F8802090F88000401C83F8BE
:102BA00080001846815490F8801090F88000401CF6
:102BB0001A4682F8800010464554E0793038C1B298
:102BC000104690F8802090F88000401C83F8800028
:102BD00018468154607A3038C1B2184690F8802087
:102BE00090F88000401C83F8800018468154607B78
:102BF0003038C1B2184690F8802090F88000401C10
:102C000083F8800018468154E07A3038C1B2184603
:102C100090F8802090F88000401C83F880001846CF
:102C200081540EF0FBFA134991F8803005F132011E
:102C3000C8B2104AFF2109F0B9FE78B100260AE0B7
:102C400005F0CAFB142010F0D7F80948007800B14D
:102C500003E0701CC6B2322EF2DB00BF0EF0DEFACB
:102C60000348007808B9002070BD0120FCE700008F
:102C7000A0000020A40100202DE9F04104460D46EB
:102C800016464FF0FF080020FE490870002C01DDB9
:102C9000322C02DB0020BDE8F081601EC4B2C4EB20
:102CA0000410C0EBC000F84901EB400080783228E6
:102CB00007DCC4EB0410C0EBC00001EB40008078DF
:102CC00008B90020E7E70020F04981F88000C4EB54
:102CD0000410C0EBC000EC4901EB400090F8CC10B0
:102CE000EA4890F8802090F88000401CE74B83F879
:102CF000800018468154C4EB0410C0EBC000E249C8
:102D000001EB400090F8CD10184690F8802090F824
:102D10008000401C83F8800018468154C4EB0410E6
:102D2000C0EBC000D84901EB400090F8CE10184627
:102D300090F8802090F88000401C83F880001846AE
:102D40008154C4EB0410C0EBC000CF4901EB40003C
:102D500090F8CF10184690F8802090F88000401C22
:102D600083F8800018468154C4EB0410C0EBC00007
:102D7000C54901EB400090F8D010184690F880202B
:102D800090F88000401C83F8800018468154C4EB02
:102D90000410C0EBC000BC4901EB400090F8D1101A
:102DA000184690F8802090F88000401C83F880003E
:102DB00018468154022D7CD1C4EB0410C0EBC00036
:102DC000B14901EB4000B0F8AE000112184690F88E
:102DD000802090F88000401C83F8800018468154C1
:102DE000C4EB0410C0EBC000A74901EB400090F811
:102DF000AE10184690F8802090F88000401C83F8B0
:102E0000800018468154C4EB0410C0EBC0009E49FA
:102E100001EB4000B0F8BC000112184690F8802089
:102E200090F88000401C83F8800018468154C4EB61
:102E30000410C0EBC000944901EB400090F8BC10B6
:102E4000184690F8802090F88000401C83F880009D
:102E500018468154C4EB0410C0EBC0008A4901EB52
:102E60004000B0F8B0000112184690F8802090F8A9
:102E70008000401C83F8800018468154C4EB041085
:102E8000C0EBC000804901EB400090F8B01018463C
:102E900090F8802090F88000401C83F8800018464D
:102EA0008154C4EB0410C0EBC000774901EB400033
:102EB00000E0ADE1B0F8BE000112184690F88020A5
:102EC00090F88000401C83F8800018468154C4EBC1
:102ED0000410C0EBC0006C4901EB400090F8BE103C
:102EE000184690F8802090F88000401C83F88000FD
:102EF00018468154C4EB0410C0EBC000624901EBDA
:102F00004000B0F8B2000112184690F8802090F806
:102F10008000401C83F8800018468154C4EB0410E4
:102F2000C0EBC000584901EB400090F8B2101846C1
:102F300090F8802090F88000401C83F880001846AC
:102F40008154C4EB0410C0EBC0004F4901EB4000BA
:102F5000B0F8C0000112184690F8802090F8800068
:102F6000401C83F8800018468154C4EB0410C0EB69
:102F7000C000454901EB400090F8C010184690F899
:102F8000802090F88000401C83F88000184681540F
:102F9000C4EB0410C0EBC0003B4901EB4000B0F8AB
:102FA000B4000212184690F8801090F88000401C7F
:102FB00083F8800018464254C4EB0410C0EBC000F4
:102FC000314901EB400090F8B410184690F8802089
:102FD00090F88000401C83F8800018468154C4EBB0
:102FE0000410C0EBC000284901EB4000B0F8C2005B
:102FF0000112184690F8802090F88000401C83F859
:10300000800018468154C4EB0410C0EBC0001E4978
:1030100001EB400090F8C220184690F8801090F81C
:103020008000401C83F8800018464254C4EB041012
:10303000C0EBC000144901EB4000B0F8B60002122A
:10304000184690F8801090F88000401C83F88000AB
:1030500018464254C4EB0410C0EBC0000A4901EB0F
:10306000400090F8B610184690F8802090F8800044
:10307000401C83F8800018468154C4EB0410C0EB58
:10308000C00005E0A000002014120020A4010020D0
:103090007F4901EB4000B0F8C4000112184690F8D7
:1030A000802090F88000401C83F8800018468154EE
:1030B000C4EB0410C0EBC000754901EB400090F870
:1030C000C410184690F8802090F88000401C83F8C7
:1030D000800018468154C4EB0410C0EBC0006C495A
:1030E00001EB4000B0F8B8000112184690F88020BB
:1030F00090F88000401C83F8800018468154C4EB8F
:103100000410C0EBC000624901EB400090F8B81019
:10311000184690F8802090F88000401C83F88000CA
:1031200018468154C4EB0410C0EBC000584901EBB1
:103130004000B0F8C6000112184690F8802090F8C0
:103140008000401C83F8800018468154C4EB0410B2
:10315000C0EBC0004E4901EB400090F8C620184675
:1031600090F8801090F88000401C83F8800018468A
:103170004254C4EB0410C0EBC000454901EB4000D1
:10318000B0F8BA000112184690F8802090F880003C
:10319000401C83F8800018468154C4EB0410C0EB37
:1031A000C0003B4901EB400090F8BA10184690F877
:1031B000802090F88000401C83F8800018468154DD
:1031C000C4EB0410C0EBC000314901EB4000B0F883
:1031D000C8000212184690F8801090F88000401C39
:1031E00083F8800018464254C4EB0410C0EBC000C2
:1031F000274901EB400090F8C820184690F880104D
:1032000090F88000401C83F88000184642541AE071
:10321000012D18D1C4EB0410C0EBC0001C4901EB18
:1032200040004078042801D0002034E54FF0F10838
:10323000184890F8801090F88000401C154A82F8D9
:103240008000104646540DF0E9FF124991F8803095
:10325000611CC8B20F4A414609F0A8FB78B10027AB
:103260000AE005F0B9F814200FF0C6FD0A4800780E
:1032700000B103E0781CC7B2322FF2DB00BF0DF0C3
:10328000CDFF0548007808B9002004E5012002E5DB
:1032900014120020A4010020A000002070B50446F4
:1032A000002500F007FAFF220021104600F05AFA2C
:1032B00004E0681C85B201200FF09EFD1D2000F087
:1032C000ACF900F0010010B9B5F5FA7FF1DBB5F506
:1032D000FA7F01DB012070BD002058490860002101
:1032E000082000F017FA0021092000F013FA00214D
:1032F0000C2000F00FFA00210D2000F00BFA102135
:103300000A2000F007FA1A210B2000F003FA11211D
:10331000042000F0FFF91A21052000F0FBF9FF213D
:10332000062000F0F7F91F21072000F0F3F9B02183
:10333000382000F0EFF93F21282000F0EBF9302190
:10334000292000F0E7F9F921302000F0E3F9F72116
:10335000312000F0DFF90D21C02000F0DBF9002161
:10336000C12000F0D7F93322C221802000F0FAF901
:103370001221C62000F0CEF90C21C72000F0CAF9B6
:103380001521C42000F0C6F9EE21CA2000F0C2F9D0
:103390000521CB2000F0BEF92178E42000F0BAF935
:1033A0006178E52000F0B6F9A178E22000F0B2F9EA
:1033B000E178E32000F0AEF92179E02000F0AAF9ED
:1033C0006179E12000F0A6F94FF48071002000F04F
:1033D00061F84FF48071102000F05CF81F2000F0BD
:1033E0007FF9C0221B21802000F0BCF904221F219C
:1033F000802000F0B7F9002611E003200FF0FCFC5C
:10340000112000F01FF800F4806018B100200C4972
:10341000087007E001200A490870701C86B2B6F5F2
:10342000FA7FEADB00BFE42000F0F7F82178884259
:1034300001D100204FE701204DE700008C00002063
:103440009000002070B504462146D42000F062F9B7
:103450000121D22000F05EF9002601E0701C86B246
:1034600041F270708642F9DB00BFEA2000F0D5F827
:1034700000F001000028F8D10021D22000F04AF924
:10348000D92000F0CAF80502D82000F0C6F805439C
:10349000284670BD70B505460C4600262946D42046
:1034A00000F038F9E1B2D62000F034F9C4F3072176
:1034B000D72000F02FF901E0701C86B2EA2000F05E
:1034C000ACF800F0010018B140F6FF708642F3DB63
:1034D00070BD00002DE9F04105460F461120FFF7B1
:1034E000B1FF00F4806018B100203049087002E09C
:1034F00001202E490870392000F08FF810B9002003
:10350000BDE8F0812A480178002000F003F928483E
:103510000088C0F30721012000F0FCF800213A20C8
:1035200000F0A4F82249086000213A2000F09EF83B
:103530001F49096841EA00201D49086000213A201E
:1035400000F094F8044600213A2000F08FF844EA95
:103550000024241F00213A2000F088F806460021AC
:103560003A2000F083F846EA0026681EA04200D206
:103570006C1E06F0800008B9002403E0394620469E
:1035800000F056F80A4801780C2000F0C3F808480B
:103590000088C0F307210D2000F0BCF840221E2156
:1035A000802000F0DFF82046AAE70000900000200D
:1035B0008C00002070B504460D461121022000F059
:1035C000A9F81A21032000F0A5F811202044C1B267
:1035D000062000F09FF841F611202044C0F3072197
:1035E000072000F097F8002211467A2000F0BAF880
:1035F0002946204600F09AF808221F21802000F07A
:10360000B1F81C2000F009F800F0020020B10822F7
:103610001F21A02000F0A6F870BD10B5044620467A
:1036200000F05EF82146002000F020F810BD0000F8
:1036300070B505460C464FF480510B480FF096FDCF
:103640003A200CF0ABFF05E06D1E00200CF0A6FF49
:103650002070641C002DF7D1002020704FF48051A1
:1036600001480FF085FD70BD000C014070B50546A6
:103670000C4600264FF480510D480FF077FD04F002
:103680001F0040EA050630460CF088FFFF200CF0D2
:1036900085FF064604F0800018B1FF200CF07EFF85
:1036A00006464FF4805102480FF062FD304670BD6F
:1036B000000C014010B5FF200CF070FF10210748EE
:1036C0000FF054FD0A200FF097FB102103480FF074
:1036D0004FFD0A200FF090FB10BD000000080140D4
:1036E00010B5044604F060000949097888420ED0FC
:1036F00003221F21A02000F035F8C4F341121F213E
:10370000802000F02FF804F060000149087010BD1F
:103710008800002070B504460D462046FFF7E0FF04
:103720002A462146402000F01DF870BD70B50446C1
:103730000D464FF480510A480FF018FD7A200CF026
:103740002DFF04E0641E28780CF028FF6D1C002C6F
:10375000F8D14FF4805102480FF00AFD70BD00000F
:10376000000C01402DE9F04104460D4616460027A5
:103770004FF4805109480FF0F9FC05F01F0040EAB2
:10378000040738460CF00AFF30460CF007FF4FF4F0
:10379000805102480FF0ECFCBDE8F081000C0140C4
:1037A0000648007806490978884203D00448007822
:1037B000024908700248007870470000910000201C
:1037C0009000002010B51D20FFF727FF00F04000FB
:1037D00050B107A008F0D4FA11F086F90A48007831
:1037E000401C0949087002E000200749087010BD1C
:1037F0007068792065737461743A203078343020B1
:103800006572726F720000007700002070B5054687
:103810000C461CB128460DF0C5FB01E00DF0ACFBD9
:1038200070BD000010B5AF480078801E05287DD21D
:10383000DFE800F0032A4E838400AB4890F893122F
:1038400000F261200DF016FB02F0ACFDA7490880E4
:10385000A54890F8C70200280ADD0320A149087096
:10386000A14890F86603002805DD0620087002E0F4
:1038700004209C49087002F095FD9D49088002F0E3
:1038800091FD9C49088094E002F08CFD97490988DD
:10389000884205DD02F086FD94490988401A04E05B
:1038A00002F080FD91490988081A05280FDD924829
:1038B0000078401C904908708B4890F860020978A5
:1038C000884204DA022087490870012010BD70E0A8
:1038D000854890F82F0300282EDD02F063FD84490F
:1038E0000988884205DD02F05DFD81490988401A9A
:1038F00004E002F057FD7E490988081A7A49B1F8B8
:103900005C12884218DD02F04DFD79490880764846
:1039100090F82F1300F2FD200DF0ACFA02F042FDFA
:1039200072490880704890F8630300E03DE0002889
:1039300002DD05206B4908703BE000BF02F032FD5C
:103940006A490988884205DD02F02CFD674909882B
:10395000401A04E002F026FD64490988081A052887
:1039600014DD65480078401C634908705E4890F893
:1039700060020978884217DA02205A4908705F48C5
:103980000078401C5D49087001209FE75548007889
:10399000052807D104205349087002F003FD55495A
:1039A000088001E008F090FE03E002204D49087015
:1039B00000BF00BF4B48007804281ADB02F0F2FC7D
:1039C0004C490988884205DD02F0ECFC4949098828
:1039D000401A04E002F0E6FC46490988081A424908
:1039E000B1F85E12884204DD02203E4908700120D1
:1039F0006CE743480088002872D064204149087071
:103A000002F0D0FC3B490880374890F8FB020028C0
:103A10000BDD3D48FEF70EF938B13CA008F0B0F9D7
:103A2000022030490870012050E72E480078032812
:103A300017D135483438FEF7FDF800284DD02A4814
:103A400090F8630310B900202C49087000202A491F
:103A5000087004202349087002F0A4FC244908805F
:103A60003BE020480078042837DB1E480078052812
:103A70000DDB25486830FEF7DDF840B100201F4916
:103A800008701D49087004201649087025E0164882
:103A900090F8060200F00F0001281ED11E480078A1
:103AA0007B280CD11C484078812808D11A4880789E
:103AB00028B91948C078102801D1002006E710481D
:103AC000017816A008F06EF90DF0A8FB0C480178FB
:103AD000144B03221048FDF799F90020084908808B
:103AE0000020F3E670000020080C00207400002085
:103AF0008400002072000020760000208600002054
:103B00008C010020D5000020D10E00204574684BA8
:103B100069636B4F66660000CA6000204574685296
:103B200065630000BC41002010B50F4800780A28EA
:103B300002DD00200C4908700A200FF05DF90B48E7
:103B40000088002808DD0A4808F01AF908480BF038
:103B500063F800200549088003480078401C0249AA
:103B600008700846007810BD870000208C010020F6
:103B7000CA6000203221002015E0C0EB0012C2EB29
:103B8000C2020B4B03EB42029278322A07DCC0EBF5
:103B90000012C2EBC20203EB420292780AB901465C
:103BA00003E0421CD0B23228E7DB00BF0846704772
:103BB0001412002001460868704770B505460E468D
:103BC0000FF026FA3C200FF0BDF900240AE04FF474
:103BD000806101FB04500FF0C5F93C200FF0B2F9F1
:103BE000601C84B2B442F2DB0FF0B2F970BD30B5A4
:103BF00003460C461546002208E01846FFF7DAFF98
:103C000044F8220000BF1B1D501C82B2AA42F4DB04
:103C100030BD2DE9F04106460D4614462246E31715
:103C200004EB93539B12A4EB8323002B06DD214668
:103C3000E31704EB93539B125B1C04E02046C3176D
:103C400000EB93539B12DFB239463046FFF7B5FFC6
:103C50000FF0DEF93C200FF075F94FF000080DE091
:103C6000304629680FF0E6F900BF00BF00BF00BF73
:103C7000361D2D1D08F104001FFA80F8A045EFDB6A
:103C80000FF066F9BDE8F08119480078322804D0B9
:103C9000332813D0342823D111E01648007830B9E6
:103CA00050201549087014201449087005E0C820F8
:103CB0001149087014201149087017E000BF0D4821
:103CC000007830B964200C490870B4200B490870A2
:103CD00005E0C8200849087064200849087005E01C
:103CE0000120054908700549087000BF00BF7047F2
:103CF000540000205E000020DB000020DA000020DD
:103D00002DE9F04159480078801CC5B25748405D04
:103D10005749C8775549681C085C55498877AC1CD9
:103D20000EE0601B801E082801DBBDE8F0814F48D3
:103D3000025D601B801E4E4913310A54601C84B220
:103D40004B49C97F481C00EBD0714A10A91C114493
:103D5000A142E6DC08F06EFCA01CC5B2A81DC5B2ED
:103D6000681CC5B22846691CCDB2404911F80080D4
:103D7000601C085C50BB00240026002723E09F2C19
:103D800000DB22E07819401E3849085CC6F10801C2
:103D900008417919354A515CB14001F07F01014376
:103DA00002F1DC000155701C86B2781CC7B2F11715
:103DB00006EB5171C910A6EBC10111B90026781E9E
:103DC000C7B2601C84B24445D9DB31E02C460027E1
:103DD00029E02648005D68B92449601C085C8028F9
:103DE00008DA601C0A5C3846791CCFB21F49DC3106
:103DF0000A5416E01D4A611C515C125D01EB022160
:103E000088B20DF095F8064632123846791CCFB2CA
:103E10001649DC310A543846791CCFB21349DC31DB
:103E20000E54A01C84B208EB0500A042D1DCB846B9
:103E3000B8F1A00F04DA00210C48DC3000F80810BB
:103E40000A48DC3007F09CFF04220A490748DC30AE
:103E5000FDF72AFF40B101F0A1FFA8F10400C1B2B3
:103E60000248E0300AF0C4FF00BF5EE754030020C0
:103E7000D4110020080C002070B504461B480068CF
:103E800020F001001949086019480078022802D082
:103E90000CB1601E84B217A00DF0D5F9642094FB1C
:103EA000F0F03030C5B2284607F074FB0A2094FBCE
:103EB000F0F00A2190FBF1F201FB12003030C5B2A4
:103EC000284607F067FB0A2094FBF0F100FB114045
:103ED0003030C5B2284607F05DFB09A00DF0B3F9FC
:103EE00040F6B83000F0F0F970BD0000400000204E
:103EF0005400002041542B434D47443D0000000036
:103F00000D0A000010B501224FF4FA73114602A009
:103F100008F09EFB10BD000041542B4353510D0A85
:103F20000000000010B506480078022803D105A063
:103F30000DF089F902E007A00DF085F910BD000031
:103F40005400002041542B43504D533D22534D22E9
:103F50000D0A000041542B43504D533D22534D2236
:103F60002C22534D222C22534D220D0A000000001A
:103F700010B501224FF47A73114610A008F068FBC7
:103F800001224FF47A7311460FA008F061FB11482B
:103F9000007800F0440030B10F49012008700FA0F4
:103FA00007F0EEFE08E00C48007828B112A007F0F8
:103FB000E7FE09490020087010BD000041542B4362
:103FC0005245473F0D0A000041542B43474154548A
:103FD0003F0D0A004000002064000020477072730B
:103FE000206E6574776F726B207265676973747287
:103FF00079204F4B0000000047707273206E65748B
:10400000776F726B2072656769737472792045727D
:104010007200000070B54949002081F880004849CD
:104020000860484908604849086000250DE0012201
:104030004FF49673114645A008F00AFB46480078F5
:10404000002800DD03E0681CC5B2032DEFDB00BFD4
:1040500007F0D6FA4FF47A7303224FF400613FA0C1
:1040600008F0F6FA4FF47A73022201213EA008F01C
:10407000EFFA20B93FA007F083FE012070BD0024B5
:104080001BE02F482E49006840F480100860012290
:104090004FF47A7311463BA008F0DAFA284800681A
:1040A00000F4001038B13A48007818B139493AA004
:1040B0000DF06CF903E0601CC4B2052CE1DB00BF1D
:1040C000052C04DB38A007F05BFE0120D6E73B4956
:1040D0000120087003F0AEFD19490020086000249B
:1040E00018E0FFF70FFF4FF4FA700EF08FFEFFF7A6
:1040F0003FFF4FF4FA700EF089FE1148007800F08F
:10410000040020B90E48007800F0400000B103E040
:10411000601CC4B2052CE4DB00BF052C02DB28A028
:1041200007F02EFE00F032F905480549006840F41A
:1041300000300860FFF7A8FD00209FE7A4010020E1
:1041400040000020440000204800002041542B4340
:10415000474D520D0A0000005400002041542B43EB
:1041600047534E0D0A00000041542B435245473D32
:10417000320D0A006E657420737461747573206566
:104180007272000041542B51434349440D0A000010
:10419000DC0000205500002053494D2B4343494487
:1041A000203D2025730D0A006765742053494D207A
:1041B0004343494420657272000000006100002002
:1041C00047534D204E4F204E455420524547000046
:1041D00070B504460D463448006820F002003249AC
:1041E00008603248006820F001003049086030A0C3
:1041F0000DF029F831480078022802D00CB1601E79
:1042000084B20A2C0ADA0A2094FBF0F100FB114078
:104210003030C6B2304607F0BDF938E0632C17DA0B
:104220000A2094FBF0F00A2190FBF1F201FB12004E
:104230003030C6B2304607F0ADF90A2094FBF0F1F9
:1042400000FB11403030C6B2304607F0A3F91EE043
:10425000642094FBF0F03030C6B2304607F09AF993
:104260000A2094FBF0F00A2190FBF1F201FB12000E
:104270003030C6B2304607F08DF90A2094FBF0F1D9
:1042800000FB11403030C6B2304607F083F9012DF3
:1042900002D10BA00CF0D7FF0AA00CF0D4FF40F61F
:1042A000B83000F011F870BD44000020400000203C
:1042B00041542B434D47523D000000005400002064
:1042C0002C3100000D0A000070B504461848007833
:1042D000012801D1002070BD154901200870154842
:1042E00041F201010068884312490860002518E086
:1042F0001048007800F0010020B10D49002008703E
:104300000120E8E70B48008800F4805020B10849FC
:10431000002008700220DEE702200EF077FDA81CC6
:1043200085B2A542E4DB02490020087000BFD2E755
:10433000530000204000002010B51348B0F8C8001A
:10434000801E1149085C0D2814D10846B0F8C80039
:10435000401E085C0A280DD100210B48B0F8C800A7
:10436000801E094A11541046B0F8C800801E11463C
:10437000A1F8C8000448B0F8C8100BF00FFE0020E8
:104380000149A1F8C80010BDE204002070B5002466
:104390003E4890F84300202804DB3C4890F8430056
:1043A000FF2801DD002070BDA0200FF01FF9054699
:1043B00037480078022806D136A23AA128460CF0E8
:1043C000F5FF0D2405E038A236A128460CF0EEFFDB
:1043D0000F242E49281928224331FDF710FD2044CF
:1043E000C4B222222046611CCCB22A542C22204680
:1043F000611CCCB22A5422222046611CCCB22A5421
:104400002249281928226B31FDF7F9FC2044C4B257
:1044100022222046611CCCB22A542C222046611C48
:10442000CCB22A5422222046611CCCB22A5417490D
:10443000281928229331FDF7E2FC2044C4B222223D
:104440002146601CC4B26A540D222046611CCCB2C5
:104450002A540A222046611CCCB22A54002221464A
:10446000601CC4B26A5440F6B833022201212846C7
:1044700008F0EEF820B928460EF004FE002092E77E
:1044800028460EF0FFFD01208DE70000080C0020FB
:104490005400002041542B5149435347503D312C87
:1044A000220000002573000041542B51494353471B
:1044B000503D312C312C22002DE9F041DA4E0027FD
:1044C000B760307D022808D002F0DCFB0AF00EFC59
:1044D000D64C20784F2803D005E002F033FBF5E7F7
:1044E00060784B2809D00422D1A1D048FDF7DCFB2D
:1044F00048B1306840F480500EE0306840F0010070
:104500003060BDE8F0810422CBA1C848FDF7CCFBA8
:1045100028B1306840F480303060BDE8F08104227A
:10452000C7A1C248FDF7C0FB18B1306840F4804015
:1045300034E020784E2802D0552813D021E060784E
:104540004F281ED1A07852281BD1E079502818D1CD
:10455000207A4F2815D1607B442812D1A07B4F28A8
:1045600019D00EE060784E280BD1A078442808D1ED
:10457000A079562805D1A07B502802D1E07B4F2896
:1045800009D00322B0A1A948FDF78EFBC0B1E078A5
:10459000432805D014E0306840F4005030600FE04C
:1045A000207947280CD16079532802D04D2804D0B7
:1045B00006E0306840F48060AEE7A079522803D06E
:1045C000307D012804D023E001203075BDE8F08162
:1045D00000256019804603229CA1FDF765FB08B108
:1045E000022006E004229AA14046FDF75DFB10B1CF
:1045F000032030750CE04046032297A1FDF754FBE1
:1046000010B10420307503E0681CC5B20F2DE0D353
:10461000306810F4806F18D021783039092914D807
:1046200020F4806CC6F800C094F8801000200029A7
:1046300008D98A4A235C1354401CC0B2814201D974
:104640000F28F7D34CF4006066E7854D10F4801F07
:1046500015D021783039092911D820F480633360CE
:1046600094F8801000200A19A0F10901515C295426
:10467000401CC0B20828F7D343F400104CE7207860
:104680002B28A3D1607843281FD051289ED1042223
:1046900074A1A01CFDF708FB002897D094F8803087
:1046A00000200821082B0BD9625C2A54302A07D33A
:1046B000401C491CC9B2C0B28B4201D90828F3D3AF
:1046C0002F54306840F4001026E7032267A1601CD5
:1046D000FDF7EAFA6FF02F05B8B1B777E0792C282B
:1046E0000ED0A179303901EB810105EB410108447D
:1046F000C0B2B07763287FF469AFB777BDE8F081C7
:10470000A0793038B077BDE8F081042258A1601C50
:10471000FDF7CAFA78B1607A3028F4D1E07A33280C
:1047200005D03028EFD1306840F02000F4E6306842
:1047300040F40040F0E6A0784D2802D16079452889
:1047400009D007224CA1A01CFDF7AEFA10B33068C7
:1047500040F40070E0E6306840F480513160207B26
:10476000312802D1627B302A04D0617B202907D214
:1047700030380CE0A27B202A02D241F08000CBE648
:104780003038617B00EB800005EB40000844B074DA
:10479000BDE8F08107223AA1A01CFDF785FA18B107
:1047A000306840F48070B7E6032237A1A01CFDF703
:1047B0007BFA0028B7D1032234A1A01CFDF774FABC
:1047C00018B184F88070BDE8F081042230A1A01CEB
:1047D000FDF76AFA48B1207A3128306802D020F01B
:1047E000400099E640F0400096E603222AA1A01C72
:1047F000FDF75AFA0028E6D0A07A2C2804D1607A76
:1048000031280DD035280BD0207A2C2804D1E0791E
:10481000312805D0352803D0306820F004007BE62D
:10482000306840F0040077E640000020A40100203A
:104830004552524F000000004255535900000000FD
:1048400052494E470000000041542B004D333500C3
:10485000554331350000000045433200D2040020AA
:1048600055000020434349440000000043535100D9
:10487000434C43430000000050494E3A205245004B
:1048800050494E3A205349004F4C50004C4950007B
:1048900047415454000000005245470010B50146FE
:1048A0000B12CAB2B02B12DBF72B10DCA12A0EDBE5
:1048B000FE2A0CDCA3F1B000C0EB001404EB4010A6
:1048C00002EB4000A138034C34F8100010BD20204A
:1048D000FCE70000227201082DE9F041054622485C
:1048E000068814200EF082FE074635B11E48028865
:1048F0001EA138460CF05AFD06E01F4806880288C3
:104900001AA138460CF052FD384608F00FF9002481
:104910001FE02A462146194807F02EF91748C07AA9
:1049200000280DDD1548C07A322809DC14A008F0F3
:10493000FDF81248FDF77AFA01F0ECFD1149086024
:104940001148007818B100200F49087003E0601C7E
:1049500084B2B442DDDB00BF7D2006F0EDFD3846B9
:104960000EF090FBBDE8F081A40000207B22546F84
:1049700074616C223A256400A8000020F811002020
:104980002C0D0A0018000020C8000020064810F86E
:10499000011B064A117010F8011B517010F8011B21
:1049A00091700178D1707047E8F7FF1FCA000020AE
:1049B0002DE9FC430746884616463046F11706EBBC
:1049C0009171C1F387054FF000090024C7E100246D
:1049D000BAE13046F11706EB91718910A6EB81011F
:1049E00021B1012961D0022972D1CCE0322D13DD31
:1049F00000222046611CCCB20DF800202046611C2C
:104A0000CCB20DF800202046611CCCB20DF800207D
:104A100000200DF8040045E0C5EB0510C0EBC00018
:104A2000D14901EB400040780A2813D000222046EB
:104A3000611CCCB20DF800202046611CCCB20DF8F0
:104A400000202046611CCCB20DF8002000200DF89B
:104A5000040027E0C5EBC500C44911F8102020462A
:104A6000611CCCB20DF80020C5EBC500401CBF494D
:104A700011F810202046611CCCB20DF80020C5EBC7
:104A8000C500801CB94911F810202046611CCCB229
:104A90000DF80020C5EBC500C01CB44911F810008A
:104AA0000DF80400681CC5B24BE1322D11DD002267
:104AB0002046611CCCB20DF800202046611CCCB20F
:104AC0000DF800202046611CCCB20DF800203CE01F
:104AD000C8E0C5EB0510C0EBC000A34901EB4000E6
:104AE00040780A2810D000222046611CCCB20DF874
:104AF00000202046611CCCB20DF800202046611C2D
:104B0000CCB20DF8002020E0C5EBC500401C974951
:104B100011F810202046611CCCB20DF80020C5EB26
:104B2000C500801C914911F810202046611CCCB2B0
:104B30000DF80020C5EBC500C01C8C4911F81020F1
:104B40002046611CCCB20DF80020681CC5B2322D85
:104B500003DD00200DF8040014E0C5EB0510C0EBE8
:104B6000C000814901EB400040780A2803D00020B2
:104B70000DF8040006E0C5EBC5007C4911F81000F3
:104B80000DF80400DDE0322D0BDD00222046611C13
:104B9000CCB20DF800202046611CCCB20DF80020EC
:104BA0002BE0C5EB0510C0EBC0006F4901EB4000E6
:104BB00040780A280BD000222046611CCCB20DF8A8
:104BC00000202046611CCCB20DF8002015E0C5EB9A
:104BD000C500801C654911F810202046611CCCB22C
:104BE0000DF80020C5EBC500C01C604911F810206D
:104BF0002046611CCCB20DF80020681CC5B2322DD5
:104C000009DD00222046611CCCB20DF800200020F6
:104C10000DF8040025E0C5EB0510C0EBC0005249BB
:104C200001EB400040780A2809D000222046611C90
:104C3000CCB20DF8002000200DF8040011E0C5EB07
:104C4000C5004A4911F810202046611CCCB20DF86D
:104C50000020C5EBC500401C444911F810000DF8B8
:104C600004006EE0322D06DD00222046611CCCB22D
:104C70000DF800201BE0C5EB0510C0EBC0003A4961
:104C800001EB400040780A2806D000222046611C33
:104C9000CCB20DF800200AE0C5EBC500C01C3349BA
:104CA00011F810202046611CCCB20DF80020681CC1
:104CB000C5B2322D0EDD00222046611CCCB20DF8AB
:104CC00000202046611CCCB20DF8002000200DF819
:104CD000040035E0C5EB0510C0EBC000224901EB34
:104CE000400040780A280ED000222046611CCCB239
:104CF0000DF800202046611CCCB20DF800200020E9
:104D00000DF804001CE0C5EBC500184911F810208F
:104D10002046611CCCB20DF80020C5EBC500401C3C
:104D2000124911F810202046611CCCB20DF8002069
:104D3000C5EBC500801C0D4911F810000DF80400EA
:104D400000BF00BF601CC4B2082CFFF642AE68462C
:104D5000FCF728FD49464A1C02F0FF097854C1457A
:104D6000FFF635AEBDE8FC8314120020BC05002020
:104D70002DE9FC43074688461646304606EBD071BF
:104D8000C1F347054FF0000900248DE0002480E0C6
:104D9000304606EBD0714910A6EB4101002942D004
:104DA000322D06DD00222046611CCCB20DF8002019
:104DB0001BE0C5EB0510C0EBC0003E4901EB400015
:104DC0004078042806D000222046611CCCB20DF8A1
:104DD00000200AE0C5EBC500401C374911F810203F
:104DE0002046611CCCB20DF80020681CC5B2322DE3
:104DF00003DD00200DF8040049E0C5EB0510C0EB11
:104E0000C0002C4901EB40004078042803D000206A
:104E10000DF804003BE0C5EBC500274911F8100070
:104E20000DF8040033E0322D09DD00222046611C1C
:104E3000CCB20DF8002000200DF8040025E0C5EBF1
:104E40000510C0EBC0001B4901EB4000407804286E
:104E500009D000222046611CCCB20DF800200020B1
:104E60000DF8040011E0C5EBC500134911F810203E
:104E70002046611CCCB20DF80020C5EBC500401CDB
:104E80000D4911F810000DF80400681CC5B2601C33
:104E9000C4B2082CFFF67CAF6846FCF783FC494699
:104EA0004A1C02F0FF097854C145FFF66FAFBDE818
:104EB000FC83000014120020BC0500202DE9F04105
:104EC0002DED048B0446204601F05CFA0546681E71
:104ED00000F0FF082EE04046421E02F0FF08FBF7FC
:104EE0005BFB41EC190BB0EE491AF0EE691A9FED2D
:104EF000160B0CF089FAB0EE408AF0EE608A51ECA5
:104F0000180BFBF775FB86B294FBF6F00A2190FBB9
:104F1000F1F201FB1200C7B207F13000C1B20C4838
:104F2000B0F8C820B0F8C800401C094BA3F8C8006E
:104F3000184681542800A5F10101CDB2CBD1BDECBA
:104F4000048BBDE8F0810000000000000000244058
:104F5000E204002070B505460024002686E0C4EB7C
:104F60000410C0EBC0004A4901EB400080780028E3
:104F70007ADDC4EB0410C0EBC00001EB4000807888
:104F8000322871DCC4EB0410C0EBC00011F8100033
:104F9000A84269D1002E2CD10126ADB13D4A12782C
:104FA0000AB13DA200E045A21146474AB2F8C82026
:104FB000454BD0180CF0FAF94349B1F8C810084431
:104FC0004149A1F8C80014E0324A12780AB13FA260
:104FD00000E044A211463C4AB2F8C8203A4BD0182F
:104FE0000CF0E4F93849B1F8C81008443649A1F882
:104FF000C800C4EB0410C0EBC000254901EB400021
:1050000080780A2190FBF1F03030C1B22E48B0F820
:10501000C820B0F8C800401C2B4BA3F8C8001846A5
:105020008154C4EB0410C0EBC000194901EB4000EF
:1050300080780A2190FBF1F201FB12003030C2B2FD
:105040001846B0F8C810B0F8C800401CA3F8C80053
:10505000184642542C21B0F8C820B0F8C800401CB3
:10506000A3F8C80018468154601CC4B2322CFFF665
:1050700076AF1548B0F8C80040B11348B0F8C80082
:10508000401E1149A1F8C800FCF756FB70BD000096
:1050900014120020650000204D61737465722D7339
:1050A0006C61766520636F6D6D756E6963617465A3
:1050B000206E6F726D616C6C793A0000CDA8D1B62C
:1050C000D5FDB3A33A000000E2040020636F6D6DCC
:1050D000756E69636174652061626E6F726D616C7B
:1050E0006C793A00CDA8D1B6D2ECB3A33A00000057
:1050F00070B504460D4616462078302813DB20781C
:10510000392810DC607830382178303901EB8101A2
:1051100000EB410030702878FF2802D0FEF72AFD0E
:105120002870012070BD0020FCE7000070B5034628
:105130000C460020197841E0C1EB0115C5EBC5050F
:10514000224E16F81550B5B3C1EB0115C5EBC505D8
:1051500006EB4505AD78322D2EDC19704D1CEAB2F8
:105160001DE0C2EB0215C5EBC505184E16F815502B
:105170009DB1C2EB0215C5EBC50506EB4505AD7843
:10518000322D0ADCC2EB0215C5EBC50506EB450561
:10519000AD78002D01DD227003E0551CEAB2322A01
:1051A000DFDB00BF322A00DB012019B9012801D161
:1051B0000125257004E0FFE74D1CE9B23229BBDB75
:1051C00000BF322900DB012070BD00001412002056
:1051D0002DE9FC4106460F4615464FF00008002415
:1051E00024E0002418E0322D03DB00200DF8040039
:1051F0000EE0C5EB0510C0EBC0000E4911F8100021
:10520000012802D10DF8040002E000200DF804008E
:10521000681CC5B2601CC4B2082CE4DB6846FCF70D
:10522000C1FA41464A1C02F0FF087054B845D8DB69
:10523000BDE8FC811412002010B52549B1F8C81052
:10524000234A8818032223A1FCF7D9FD2049B1F88D
:10525000C81008441E49A1F8C8001F4880880A28C1
:1052600025DD1D4880880A2190FBF1F03030C1B265
:105270001748B0F8C820B0F8C800401C144BA3F879
:10528000C80018468154144880880A2190FBF1F226
:1052900001FB12003030C1B21846B0F8C820B0F897
:1052A000C800401CA3F8C800184681540EE00A4804
:1052B00000793030C1B20648B0F8C820B0F8C80054
:1052C000401C034BA3F8C8001846815410BD0000D1
:1052D000E204002049443A00080C002010B500F018
:1052E0006DF9FCF729FAFFF7A7FFFCF725FA7D49CE
:1052F000B1F8C8107B4A881820227BA1FCF77FFDFB
:105300007849B1F8C81008447649A1F8C800B1F846
:10531000C810744A881810227549FCF770FD71494D
:10532000B1F8C81008446F49A1F8C800FCF704FAA6
:10533000704A12780AB170A200E078A21146694A58
:10534000B2F8C820674BD0184022FCF758FD6549D9
:10535000B1F8C81008446349A1F8C8007348007840
:105360000A2190FBF1F03030C2B25E48B0F8C810AC
:10537000B0F8C800401C5B4BA3F8C8001846425464
:105380006A4800780A2190FBF1F201FB12003030EC
:10539000C2B21846B0F8C810B0F8C800401CA3F854
:1053A000C80018464254FCF7C7F961480DF040FFA9
:1053B00000F48050B0B14F4A12780AB15DA200E00B
:1053C00063A21146474AB2F8C820464BD018402283
:1053D000FCF715FD4349B1F8C81008444149A1F84C
:1053E000C80015E0434A12780AB15DA200E063A24A
:1053F00011463C4AB2F8C8203A4BD0184022FCF77C
:10540000FEFC3849B1F8C81008443649A1F8C80074
:10541000FCF792F9374A12780AB15CA200E05EA26A
:105420001146304AB2F8C8202E4BD0181022FCF793
:10543000E6FC2C49B1F8C81008442A49A1F8C80074
:10544000B1F8C810274A881808225549FCF7D7FC3C
:105450002449B1F8C81008442249A1F8C800FCF753
:105460006BF9244A12780AB14EA200E04FA211460D
:105470001C4AB2F8C8201B4BD0181022FCF7BFFC06
:105480001849B1F8C81008441649A1F8C800B1F885
:10549000C810144A88180A224649FCF7B0FC114982
:1054A000B1F8C81008440F49A1F8C800FCF744F946
:1054B00041488079202814DB3F4880797F2810DC20
:1054C0000849B1F8C810074A881840223A49891D8E
:1054D000FCF795FC0349B1F8C81008440149A1F84C
:1054E000C80010BDE2040020494D45493A000000C3
:1054F000D20400206500002043656C6C756C6172FD
:10550000204E6574776F726B205369676E616C20F3
:10551000537472656E6774683A000000B7E4CED1C8
:10552000CDF8D0C5BAC5C7BFB6C83A005E000020E6
:105530000008014045787465726E616C2044432018
:10554000506F77657220476F6573204F46460000A5
:10555000CDE2B2BFB5E7D4B4B5F4B5E700000000C2
:1055600045787465726E616C20444320506F776596
:105570007220476F6573204F4E000000CDE2B2BF2E
:10558000B5E7D4B4D5FDB3A300000000566572732F
:10559000696F6E3A00000000B0E6B1BE3A0000004C
:1055A000CE0000206D6F64656C3A0000D0CDBAC5A6
:1055B0003A000000D8110020080C002010B532215C
:1055C000B248B0F8C820B0F8C800401CAF4BA3F8F0
:1055D000C800184681543021B0F8C820B0F8C8007F
:1055E000401CA3F8C80018468154A94880880A21A5
:1055F00090FBF1F090FBF1F201FB12003030C1B2F0
:105600001846B0F8C820B0F8C800401CA3F8C8007D
:10561000184681549E4880880A2190FBF1F201FBD4
:1056200012003030C1B21846B0F8C820B0F8C80037
:10563000401CA3F8C80018468154964A12780AB153
:1056400095A200E095A21146904AB2F8C8208F4B6F
:10565000D0180422FCF7D3FB8C49B1F8C8100844D9
:105660008A49A1F8C8008A4880790A2190FBF1F0A4
:1056700090FBF1F201FB12003030C1B28348B0F868
:10568000C820B0F8C800401C804BA3F8C8001846DA
:1056900081547F4880790A2190FBF1F201FB1200CE
:1056A0003030C1B21846B0F8C820B0F8C800401C6D
:1056B000A3F8C80018468154764A12780AB178A235
:1056C00000E078A21146714AB2F8C8206F4BD0189A
:1056D0000422FCF794FB6D49B1F8C81008446B49EB
:1056E000A1F8C8006A48C0790A2190FBF1F090FB4C
:1056F000F1F201FB12003030C1B26448B0F8C820AA
:10570000B0F8C800401C614BA3F8C800184681548B
:105710005F48C0790A2190FBF1F201FB12003030A2
:10572000C2B21846B0F8C810B0F8C800401CA3F8C0
:10573000C80018464254574A12780AB15AA200E0EB
:105740005AA21146514AB2F8C820504BD018042230
:10575000FCF755FB4D49B1F8C81008444B49A1F876
:10576000C8004B4800780A2190FBF1F090FBF1F261
:1057700001FB12003030C1B24448B0F8C820B0F884
:10578000C800401C414BA3F8C8001846815440484B
:1057900000780A2190FBF1F201FB12003030C1B217
:1057A0001846B0F8C820B0F8C800401CA3F8C800DC
:1057B00018468154374A12780AB13DA200E03DA252
:1057C0001146324AB2F8C820304BD0180422FCF7F8
:1057D00016FB2E49B1F8C81008442C49A1F8C8009E
:1057E0002B4840780A2190FBF1F090FBF1F201FB8D
:1057F00012003030C1B22548B0F8C820B0F8C80057
:10580000401C224BA3F8C800184681542048407819
:105810000A2190FBF1F201FB12003030C1B21846B0
:10582000B0F8C820B0F8C800401CA3F8C80018465B
:105830008154184A12780AB119A200E01EA211463A
:10584000124AB2F8C820114BD0180422FCF7D7FA3C
:105850000E49B1F8C81008440C49A1F8C8000D4A17
:1058600012780AB115A200E017A21146074AB2F851
:10587000C820064BD0181422FCF7C1FA0349B1F82E
:10588000C81008440149A1F8C80010BDE204002076
:10589000183B00206500002028592900C4EA0000B8
:1058A000284D2900D4C2000028442900C8D5000092
:1058B00028482900CAB10000B7D600002855544333
:1058C0002074696D652900002855544320CAB1BC75
:1058D000E429000010B5344802F02EFC48B93348E2
:1058E00090F81E02202804DB304890F81E02FF28A2
:1058F00016DD2F4A12780AB12EA200E030A211461E
:10590000334AB2F8C820324BD0182022FCF777FA7D
:105910002F49B1F8C81008442D49A1F8C80015E076
:10592000234A12780AB12BA200E02CA21146284A81
:10593000B2F8C820264BD0182022FCF760FA244980
:10594000B1F8C81008442249A1F8C8002049B1F8AC
:10595000C8101F4A88183C221349FCF750FA1C490A
:10596000B1F8C81008441A49A1F8C800FBF7E4FED2
:105970000F4A12780AB11BA200E01CA21146144A79
:10598000B2F8C820124BD0182022FCF738FA104980
:10599000B1F8C81008440E49A1F8C8000349B1F88D
:1059A0005A02FFF78BFA10BD260E0020080C0020CB
:1059B000650000205365727665722049503A0000F8
:1059C00020B7FECEF1C6F7B5D8D6B73A0000000032
:1059D000E2040020446F6D61696E3A0020D3F2C387
:1059E000FB3A0000506F72743A000000B6CBBFDA89
:1059F0003A00000010B53C4A12780AB13BA200E020
:105A00003AA211463B4AB2F8C8203A4BD01820229D
:105A1000FCF7F5F93749B1F8C81008443549A1F841
:105A2000C800B1F8C810334A881820223249FCF760
:105A3000E6F93049B1F8C81008442E49A1F8C80069
:105A4000FBF77AFE284A12780AB12CA200E02EA2B7
:105A50001146284AB2F8C820264BD0182022FCF75D
:105A6000CEF92449B1F8C81008442249A1F8C80069
:105A7000B1F8C8101F4A881820221F492831FCF7A6
:105A8000BEF91C49B1F8C81008441A49A1F8C80069
:105A9000FBF752FE144A12780AB11DA200E01FA2C1
:105AA0001146144AB2F8C820124BD0182022FCF735
:105AB000A6F91049B1F8C81008440E49A1F8C80069
:105AC000B1F8C8100B4A881820220B495031FCF756
:105AD00096F90849B1F8C81008440649A1F8C80069
